{
  "contractName": "CoinToFlip",
  "abi": [
    {
      "constant": true,
      "inputs": [],
      "name": "owner",
      "outputs": [
        {
          "name": "",
          "type": "address"
        }
      ],
      "payable": false,
      "stateMutability": "view",
      "type": "function"
    },
    {
      "constant": true,
      "inputs": [],
      "name": "lockedInBets",
      "outputs": [
        {
          "name": "",
          "type": "uint256"
        }
      ],
      "payable": false,
      "stateMutability": "view",
      "type": "function"
    },
    {
      "inputs": [],
      "payable": false,
      "stateMutability": "nonpayable",
      "type": "constructor"
    },
    {
      "payable": true,
      "stateMutability": "payable",
      "type": "fallback"
    },
    {
      "anonymous": false,
      "inputs": [
        {
          "indexed": true,
          "name": "gambler",
          "type": "address"
        },
        {
          "indexed": false,
          "name": "reveal",
          "type": "uint256"
        },
        {
          "indexed": false,
          "name": "amount",
          "type": "uint256"
        }
      ],
      "name": "Reveal",
      "type": "event"
    },
    {
      "anonymous": false,
      "inputs": [
        {
          "indexed": true,
          "name": "beneficiary",
          "type": "address"
        },
        {
          "indexed": false,
          "name": "amount",
          "type": "uint256"
        }
      ],
      "name": "Payment",
      "type": "event"
    },
    {
      "anonymous": false,
      "inputs": [
        {
          "indexed": true,
          "name": "beneficiary",
          "type": "address"
        },
        {
          "indexed": false,
          "name": "amount",
          "type": "uint256"
        }
      ],
      "name": "FailedPayment",
      "type": "event"
    },
    {
      "constant": false,
      "inputs": [
        {
          "name": "beneficiary",
          "type": "address"
        },
        {
          "name": "withdrawAmount",
          "type": "uint256"
        }
      ],
      "name": "withdrawFunds",
      "outputs": [],
      "payable": false,
      "stateMutability": "nonpayable",
      "type": "function"
    },
    {
      "constant": false,
      "inputs": [],
      "name": "kill",
      "outputs": [],
      "payable": false,
      "stateMutability": "nonpayable",
      "type": "function"
    },
    {
      "constant": false,
      "inputs": [
        {
          "name": "betMask",
          "type": "uint8"
        }
      ],
      "name": "placeBet",
      "outputs": [],
      "payable": true,
      "stateMutability": "payable",
      "type": "function"
    },
    {
      "constant": false,
      "inputs": [],
      "name": "revealResult",
      "outputs": [],
      "payable": false,
      "stateMutability": "nonpayable",
      "type": "function"
    },
    {
      "constant": false,
      "inputs": [],
      "name": "refundBet",
      "outputs": [],
      "payable": false,
      "stateMutability": "nonpayable",
      "type": "function"
    },
    {
      "constant": true,
      "inputs": [],
      "name": "checkHouseFund",
      "outputs": [
        {
          "name": "",
          "type": "uint256"
        }
      ],
      "payable": false,
      "stateMutability": "view",
      "type": "function"
    }
  ],
  "bytecode": "0x608060405234801561001057600080fd5b50336000806101000a81548173ffffffffffffffffffffffffffffffffffffffff021916908373ffffffffffffffffffffffffffffffffffffffff1602179055506111ae806100606000396000f3fe60806040526004361061008e576000357c0100000000000000000000000000000000000000000000000000000000900463ffffffff16806311ea8acb14610090578063172f8276146100a757806341c0e1b5146100d257806343046844146100e95780635dbc19f41461011a5780638da5cb5b14610131578063c107532914610188578063df88126f146101e3575b005b34801561009c57600080fd5b506100a561020e565b005b3480156100b357600080fd5b506100bc6103ea565b6040518082815260200191505060405180910390f35b3480156100de57600080fd5b506100e76104f3565b005b610118600480360360208110156100ff57600080fd5b81019080803560ff1690602001909291905050506106b7565b005b34801561012657600080fd5b5061012f610a36565b005b34801561013d57600080fd5b50610146610cf7565b604051808273ffffffffffffffffffffffffffffffffffffffff1673ffffffffffffffffffffffffffffffffffffffff16815260200191505060405180910390f35b34801561019457600080fd5b506101e1600480360360408110156101ab57600080fd5b81019080803573ffffffffffffffffffffffffffffffffffffffff16906020019092919080359060200190929190505050610d1c565b005b3480156101ef57600080fd5b506101f8610ea7565b6040518082815260200191505060405180910390f35b6000600260003373ffffffffffffffffffffffffffffffffffffffff1673ffffffffffffffffffffffffffffffffffffffff168152602001908152602001600020905060008160010160009054906101000a900460ff16905060008260000154905060008360030160019054906101000a900473ffffffffffffffffffffffffffffffffffffffff16905083600201544311151561033a576040517f08c379a00000000000000000000000000000000000000000000000000000000081526004018080602001828103825260338152602001807f726566756e6442657420696e207468652073616d6520626c6f636b206173207081526020017f6c6163654265742c206f72206265666f72652e0000000000000000000000000081525060400191505060405180910390fd5b6000821115156103b2576040517f08c379a00000000000000000000000000000000000000000000000000000000081526004018080602001828103825260208152602001807f4265742073686f756c6420626520696e20616e2061637469766520737461746581525060200191505060405180910390fd5b60006103be8385610ead565b9050806001600082825403925050819055506103d933610f8f565b6103e3828461106a565b5050505050565b60008060009054906101000a900473ffffffffffffffffffffffffffffffffffffffff1673ffffffffffffffffffffffffffffffffffffffff163373ffffffffffffffffffffffffffffffffffffffff161415156104d6576040517f08c379a00000000000000000000000000000000000000000000000000000000081526004018080602001828103825260228152602001807f4f6e6c79206f776e65722063616e2063616c6c20746869732066756e6374696f81526020017f6e2e00000000000000000000000000000000000000000000000000000000000081525060400191505060405180910390fd5b3073ffffffffffffffffffffffffffffffffffffffff1631905090565b6000809054906101000a900473ffffffffffffffffffffffffffffffffffffffff1673ffffffffffffffffffffffffffffffffffffffff163373ffffffffffffffffffffffffffffffffffffffff161415156105dd576040517f08c379a00000000000000000000000000000000000000000000000000000000081526004018080602001828103825260228152602001807f4f6e6c79206f776e65722063616e2063616c6c20746869732066756e6374696f81526020017f6e2e00000000000000000000000000000000000000000000000000000000000081525060400191505060405180910390fd5b600060015414151561067d576040517f08c379a00000000000000000000000000000000000000000000000000000000081526004018080602001828103825260328152602001807f416c6c20626574732073686f756c642062652070726f6365737365642062656681526020017f6f72652073656c662d64657374727563742e000000000000000000000000000081525060400191505060405180910390fd5b6000809054906101000a900473ffffffffffffffffffffffffffffffffffffffff1673ffffffffffffffffffffffffffffffffffffffff16ff5b6000349050662386f26fc1000081101580156106db5750678ac7230489e800008111155b151561074f576040517f08c379a00000000000000000000000000000000000000000000000000000000081526004018080602001828103825260178152602001807f416d6f756e74206973206f7574206f662072616e67652e00000000000000000081525060200191505060405180910390fd5b60008260ff1611801561076657506101008260ff16105b15156107da576040517f08c379a00000000000000000000000000000000000000000000000000000000081526004018080602001828103825260148152602001807f4d61736b2073686f756c6420626520382062697400000000000000000000000081525060200191505060405180910390fd5b6000600260003373ffffffffffffffffffffffffffffffffffffffff1673ffffffffffffffffffffffffffffffffffffffff1681526020019081526020016000209050600073ffffffffffffffffffffffffffffffffffffffff168160030160019054906101000a900473ffffffffffffffffffffffffffffffffffffffff1673ffffffffffffffffffffffffffffffffffffffff161415156108e5576040517f08c379a000000000000000000000000000000000000000000000000000000000815260040180806020018281038252601a8152602001807f4265742073686f756c6420626520656d7074792073746174652e00000000000081525060200191505060405180910390fd5b60006108f08461114a565b905060006108fe8483610ead565b9050806001600082825401925050819055503073ffffffffffffffffffffffffffffffffffffffff16316001541015156109a0576040517f08c379a000000000000000000000000000000000000000000000000000000000815260040180806020018281038252601d8152602001807f43616e6e6f74206166666f726420746f2070617920746865206265742e00000081525060200191505060405180910390fd5b838360000181905550818360010160006101000a81548160ff021916908360ff160217905550438360020181905550848360030160006101000a81548160ff021916908360ff160217905550338360030160016101000a81548173ffffffffffffffffffffffffffffffffffffffff021916908373ffffffffffffffffffffffffffffffffffffffff1602179055505050505050565b6000600260003373ffffffffffffffffffffffffffffffffffffffff1673ffffffffffffffffffffffffffffffffffffffff168152602001908152602001600020905060008160000154905060008260010160009054906101000a900460ff16905060008360020154905060008460030160019054906101000a900473ffffffffffffffffffffffffffffffffffffffff169050600084111515610b42576040517f08c379a00000000000000000000000000000000000000000000000000000000081526004018080602001828103825260208152602001807f4265742073686f756c6420626520696e20616e2061637469766520737461746581525060200191505060405180910390fd5b8143111515610bdf576040517f08c379a00000000000000000000000000000000000000000000000000000000081526004018080602001828103825260368152602001807f72657665616c526573756c7420696e207468652073616d6520626c6f636b206181526020017f7320706c6163654265742c206f72206265666f72652e0000000000000000000081525060400191505060405180910390fd5b6000434083406040516020018083815260200182815260200192505050604051602081830303815290604052805190602001209050600060028260019004811515610c2657fe5b06905060008090506000809050610c3d8888610ead565b905060008960030160009054906101000a900460ff1660ff168460020a16141515610c66578091505b8473ffffffffffffffffffffffffffffffffffffffff167fbd515cb7fe6810ea1d996c4efb3231c8b281498ca8062a4ec905d41943824bdf8460020a84604051808381526020018281526020019250505060405180910390a280600160008282540392505081905550610cd833610f8f565b6000821115610cec57610ceb858361106a565b5b505050505050505050565b6000809054906101000a900473ffffffffffffffffffffffffffffffffffffffff1681565b6000809054906101000a900473ffffffffffffffffffffffffffffffffffffffff1673ffffffffffffffffffffffffffffffffffffffff163373ffffffffffffffffffffffffffffffffffffffff16141515610e06576040517f08c379a00000000000000000000000000000000000000000000000000000000081526004018080602001828103825260228152602001807f4f6e6c79206f776e65722063616e2063616c6c20746869732066756e6374696f81526020017f6e2e00000000000000000000000000000000000000000000000000000000000081525060400191505060405180910390fd5b3073ffffffffffffffffffffffffffffffffffffffff1631600154820111151515610e99576040517f08c379a00000000000000000000000000000000000000000000000000000000081526004018080602001828103825260148152602001807f6c6172676572207468616e2062616c616e63652e00000000000000000000000081525060200191505060405180910390fd5b610ea3828261106a565b5050565b60015481565b60008160ff166000108015610ec5575060028260ff16105b1515610f39576040517f08c379a000000000000000000000000000000000000000000000000000000000815260040180806020018281038252601b8152602001807f50726f626162696c697479206973206f7574206f662072616e6765000000000081525060200191505060405180910390fd5b6000606460058502811515610f4a57fe5b0490506611c37937e08000811015610f67576611c37937e0800090505b60006001840360ff1660020185811515610f7d57fe5b04905080828603019250505092915050565b6000600260008373ffffffffffffffffffffffffffffffffffffffff1673ffffffffffffffffffffffffffffffffffffffff16815260200190815260200160002090506000816000018190555060008160010160006101000a81548160ff021916908360ff1602179055506000816002018190555060008160030160006101000a81548160ff021916908360ff16021790555060008160030160016101000a81548173ffffffffffffffffffffffffffffffffffffffff021916908373ffffffffffffffffffffffffffffffffffffffff1602179055505050565b8173ffffffffffffffffffffffffffffffffffffffff166108fc829081150290604051600060405180830381858888f19350505050156110f7578173ffffffffffffffffffffffffffffffffffffffff167fd4f43975feb89f48dd30cabbb32011045be187d1e11c8ea9faa43efc35282519826040518082815260200191505060405180910390a2611146565b8173ffffffffffffffffffffffffffffffffffffffff167fac464fe4d3a86b9121261ac0a01dd981bfe0777c7c9d9c8f4473d31a9c0f9d2d826040518082815260200191505060405180910390a25b5050565b6000805b60008360ff16111561117957600183168101905060018360ff16908060020a8204915050925061114e565b8091505091905056fea165627a7a72305820d15c5c59a7334c9da53673bc00933fa1f299a47c31fc42d52596124473f50a890029",
  "source": "pragma solidity >=0.4.22 <0.9.0; // 버전 프라그마 (해당 버전 사이에 있어야 컴파일 된다는 뜻)\r\n//pragma solidity >=0.4.24 <=0.5.4;\r\n// ----------------------------------------------------------------------------\r\n// CoinToFlip.sol\r\n// Simple Coin flip game\r\n// ----------------------------------------------------------------------------\r\ncontract CoinToFlip {\r\n\r\n    uint constant MAX_CASE = 2; // for coin\r\n    uint constant MIN_BET = 0.01 ether;\r\n    uint constant MAX_BET = 10 ether;\r\n    uint constant HOUSE_FEE_PERCENT = 5;\r\n    uint constant HOUSE_MIN_FEE = 0.005 ether;\r\n\r\n    address payable public owner;\r\n    uint public lockedInBets;\r\n\r\n    struct Bet {\r\n        uint amount;\r\n        uint8 numOfBetBit;\r\n        uint placeBlockNumber; // Block number of Bet tx.\r\n        // Bit mask representing winning bet outcomes\r\n        // 0000 0010 for front side of coin, 50% chance\r\n        // 0000 0001 for back side of coin, 50% chance\r\n        // 0000 0011 for both sides,  100% chance - no reward!\r\n        uint8 mask;\r\n        address payable gambler; // Address of a gambler, used to pay out winning bets.\r\n    }\r\n\r\n    mapping (address => Bet) bets; //Bet book\r\n\r\n    event Reveal(address indexed gambler, uint reveal, uint amount);//1 or 2\r\n    event Payment(address indexed beneficiary, uint amount);\r\n    event FailedPayment(address indexed beneficiary, uint amount);\r\n\r\n\r\n    constructor () public {\r\n        owner = msg.sender;\r\n    }\r\n\r\n    // Standard modifier on methods invokable only by contract owner.\r\n    modifier onlyOwner {\r\n        require (msg.sender == owner, \"Only owner can call this function.\");\r\n        _;\r\n    }\r\n\r\n\r\n    // Funds withdrawal to maintain the house\r\n    function withdrawFunds(address payable beneficiary, uint withdrawAmount) external onlyOwner {\r\n        require (withdrawAmount + lockedInBets <= address(this).balance, \"larger than balance.\");\r\n        sendFunds(beneficiary, withdrawAmount);\r\n    }\r\n\r\n\r\n    function kill() external onlyOwner {\r\n        require (lockedInBets == 0, \"All bets should be processed before self-destruct.\");\r\n        selfdestruct(owner);\r\n    }\r\n\r\n\r\n    function () external payable {}\r\n\r\n\r\n    //Bet by player\r\n    function placeBet(uint8 betMask) external payable {\r\n\r\n        uint amount = msg.value;\r\n\r\n        require (amount >= MIN_BET && amount <= MAX_BET, \"Amount is out of range.\");\r\n        require (betMask > 0 && betMask < 256, \"Mask should be 8 bit\");\r\n\r\n        Bet storage bet = bets[msg.sender]; //mapping bets(address => Bet)\r\n\r\n        require (bet.gambler == address(0), \"Bet should be empty state.\"); //can place a bet\r\n\r\n        //count bet bit in the betMask\r\n        //0000 0011  number of bits = 2\r\n        //0000 0001  number of bits = 1\r\n        uint8 numOfBetBit = countBits(betMask);\r\n\r\n        // need to lock possible winning amount to pay\r\n        uint possibleWinningAmount = getWinningAmount(amount, numOfBetBit);\r\n        lockedInBets += possibleWinningAmount;\r\n\r\n        // Check whether house has enough ETH to pay the bet.\r\n        require(lockedInBets < address(this).balance, \"Cannot afford to pay the bet.\");\r\n\r\n        bet.amount = amount;\r\n        bet.numOfBetBit = numOfBetBit;\r\n        bet.placeBlockNumber = block.number;\r\n        bet.mask = betMask;\r\n        bet.gambler = msg.sender;\r\n    }\r\n\r\n    function getWinningAmount(uint amount, uint8 numOfBetBit) private pure returns (uint winningAmount) {\r\n\r\n        require (0 < numOfBetBit && numOfBetBit < MAX_CASE, \"Probability is out of range\"); // 1\r\n\r\n        uint houseFee = amount * HOUSE_FEE_PERCENT / 100;\r\n\r\n        if (houseFee < HOUSE_MIN_FEE) {\r\n            houseFee = HOUSE_MIN_FEE;\r\n        }\r\n\r\n        //reward is depends on your own idea\r\n        uint reward = amount / (MAX_CASE + (numOfBetBit-1));\r\n\r\n        winningAmount = (amount - houseFee) + reward;\r\n    }\r\n\r\n    //\r\n    //Reveal the coin by player\r\n    function revealResult() external {\r\n\r\n        Bet storage bet = bets[msg.sender];\r\n        uint amount = bet.amount;\r\n        uint8 numOfBetBit = bet.numOfBetBit;\r\n        uint placeBlockNumber = bet.placeBlockNumber;\r\n        address payable gambler = bet.gambler;\r\n\r\n        require (amount > 0, \"Bet should be in an active state\");\r\n\r\n        // should be called after placeBet\r\n        require(block.number > placeBlockNumber, \"revealResult in the same block as placeBet, or before.\");\r\n\r\n        //RNG(Random Number Generator)\r\n        bytes32 random = keccak256(abi.encodePacked(blockhash(block.number), blockhash(placeBlockNumber)));\r\n        uint reveal = uint(random) % MAX_CASE; // 0 or 1\r\n\r\n        uint winningAmount = 0;\r\n        uint possibleWinningAmount = 0;\r\n        possibleWinningAmount = getWinningAmount(amount, numOfBetBit);\r\n\r\n        if ((2 ** reveal) & bet.mask != 0) {\r\n            winningAmount = possibleWinningAmount;\r\n        }\r\n\r\n        emit Reveal(gambler, 2 ** reveal, winningAmount);\r\n\r\n        lockedInBets -= possibleWinningAmount;\r\n        clearBet(msg.sender);\r\n\r\n        if (winningAmount > 0) {\r\n            sendFunds(gambler, winningAmount);\r\n        }\r\n    }\r\n\r\n    function sendFunds(address payable beneficiary, uint amount) private {\r\n\r\n        if (beneficiary.send(amount)) {\r\n            emit Payment(beneficiary, amount);\r\n        } else {\r\n            // 실패하는 경우 대책은?\r\n            emit FailedPayment(beneficiary, amount);\r\n        }\r\n    }\r\n\r\n\r\n    function clearBet(address player) private {\r\n        Bet storage bet = bets[player];\r\n\r\n        bet.amount = 0;\r\n        bet.numOfBetBit = 0;\r\n        bet.placeBlockNumber = 0;\r\n        bet.mask = 0;\r\n        bet.gambler = address(0);\r\n    }\r\n\r\n\r\n    //can refund before reveal\r\n    function refundBet() external {\r\n\r\n        Bet storage bet = bets[msg.sender];\r\n\r\n        uint8 numOfBetBit = bet.numOfBetBit;\r\n        uint amount = bet.amount;\r\n        address payable gambler = bet.gambler;\r\n\r\n        // Check that bet has been already mined.\r\n        require(block.number > bet.placeBlockNumber, \"refundBet in the same block as placeBet, or before.\");\r\n        require(amount > 0, \"Bet should be in an active state\");\r\n\r\n        uint possibleWinningAmount;\r\n        possibleWinningAmount = getWinningAmount(amount, numOfBetBit);\r\n\r\n        lockedInBets -= possibleWinningAmount;\r\n        clearBet(msg.sender);\r\n\r\n        // Send the refund.\r\n        sendFunds(gambler, amount);\r\n    }\r\n\r\n\r\n    function checkHouseFund() public view onlyOwner returns(uint) {\r\n        return address(this).balance;\r\n    }\r\n\r\n\r\n    function countBits(uint8 _num) internal pure returns (uint8){\r\n        uint8 count;\r\n        while (_num > 0){\r\n            count += _num & 1;\r\n            _num >>= 1;\r\n        }\r\n        return count;\r\n    }\r\n}\r\n\r\n\r\n/*\r\ncontract CoinFlips {\r\n\r\n    uint constant MAX_CASE = 2;             // 앞 뒤 두 가지 케이스\r\n    uint constant MIN_BET = 0.01 ether;     // 최소 베팅 금액\r\n    uint constant MAX_BET = 10 ether;       // 최대 베팅 금액\r\n    uint constant HOUSE_FEE_PERCENT = 5;    // 수수료 퍼센트\r\n    uint constant HOUSE_MIN_FEE = 0.005 ether;  // 최소 수수료 금액\r\n\r\n    address public owner;\r\n    uint public lockedInBets;\r\n\r\n\r\n    // 베팅 정보를 저장하기 위한 구조체\r\n    struct Bet {\r\n        uint amount;    // 베팅금액(wei)\r\n        uint8 numOfBetBit;    // 플레이어가 선택한 면의 개수\r\n        uint placeBlockNumber;  // 플레이어가 베팅한 거래 정보가 담긴 블록 번호\r\n        uint8 mask; // 플레이어가 선택한 동전 면\r\n        address gambler;    // 플레이어의 계정주소\r\n    }\r\n\r\n    mapping (address => Bet) bets;\r\n\r\n    event Reveal(uint reveal);  // 1 or 2\r\n    event Payment(address indexed beneficiary, uint amount);\r\n    event FailedPayment(address indexed beneficiary, uint amount);\r\n\r\n    constructor() public {\r\n        owner = msg.sender;\r\n    }\r\n\r\n    // owner일때만 수행하도록 도와주는 modifier\r\n    modifier onlyOwner {\r\n        require (msg.sender == owner, \"Only owner can call this function.\");\r\n        _;\r\n    }\r\n\r\n    // 이더리움 인출 메소드\r\n    function withdrawFunds(address beneficary, uint withdrawAmount) external onlyOwner {\r\n        // 인출할 수 있는 금액보다 작거나 같은 경우만 인출 가능\r\n        require (withdrawAmount + lockedInBets <= address(this).balance, \"larger than balance.\");\r\n        sendFunds(beneficary, withdrawAmount);\r\n    }\r\n\r\n    // 이더리움 전송 메소드\r\n    function sendFunds(address beneficiary, uint amount) private {\r\n        if(beneficiary.send(amount)) {\r\n            emit Payment(beneficiary, amount);\r\n        }\r\n        else {\r\n            emit FailedPayment(beneficiary, amount);\r\n        }\r\n    }\r\n\r\n    // 컨트랙트 비활성화 함수\r\n    function kill() external onlyOwner {\r\n        require(lockedInBets == 0, \"All bets should be processed before self-destruct.\");\r\n        selfdestruct(owner);\r\n    }\r\n\r\n    // Fallback 함수, 이더리움 받기 위함\r\n    function() external payable {}\r\n\r\n    // 플레이어가 화면의 베팅 버튼을 클릭했을 때 호출하는 매소드\r\n    function placeBet(uint8 betMask) external payable { // payable로 선언해서 얼마를 배팅했는지는 전달하지 않음\r\n        uint amount = msg.value;\r\n\r\n\r\n        require(amount >= MIN_BET && amount <= MAX_BET, \"Amount is out of range.\");\r\n        require(betMask > 0 && betMask < 256, \"Mask should be 8 bit\");\r\n\r\n        // storage는 함수내부에 선언된 로컬 변수가 레퍼런스 타입의 상태변수를 참조할 때 사용 (상태변수를 가리키는 포인터)\r\n        Bet storage bet = bets[msg.sender]; // mapping bets(address => Bet)\r\n\r\n        // 솔리디티에는 null이 없음 address(0)이 null과 같은 의미\r\n        require (bet.gambler == address(0), \"Bet should be empty state.\");\r\n\r\n        // betMas의 bit를 세기 위함\r\n        // 0000 0011 number of bits = 2\r\n        // 0000 0001 number of bits = 1\r\n        uint8 numOfBetBit = countBits(betMask);\r\n\r\n        bet.amount = amount;\r\n        bet.numOfBetBit = numOfBetBit;\r\n        bet.placeBlockNumber = block.number;\r\n        bet.mask = betMask;\r\n        bet.gambler = msg.sender;\r\n\r\n        // 이길시 지불할 양을 lock 해두기 위함\r\n        uint possibleWinningAmount = getWinningAmount(amount, numOfBetBit);\r\n        lockedInBets += possibleWinningAmount;\r\n\r\n        require(lockedInBets < address (this).balance, \"Cannot afford to pay the bet.\");\r\n        }\r\n\r\n    // pure는 이 메소드가 계정의 상태정보에 영향을 주지 않는 메소드라는 의미 (생략가능)\r\n    function getWinningAmount(uint amount, uint8 numOfBetBit) private pure returns (uint winningAmount) {\r\n        require (0 < numOfBetBit && numOfBetBit < MAX_CASE, \"Probability is out of range\");\r\n\r\n        uint houseFee = amount * HOUSE_FEE_PERCENT / 100;\r\n\r\n        if(houseFee < HOUSE_MIN_FEE) {\r\n            houseFee = HOUSE_MIN_FEE;\r\n        }\r\n\r\n        uint reward = amount / (MAX_CASE + (numOfBetBit-1));\r\n\r\n        winningAmount = (amount - houseFee) + reward;\r\n    }\r\n\r\n    // 플레이어에게 결과를 알려주는 함수\r\n    function revealResult(uint8 seed) external {\r\n        Bet storage bet = bets[msg.sender];\r\n        uint amount = bet.amount;\r\n        uint8 numOfBetBit = bet.numOfBetBit;\r\n        uint placeBlockNumber = bet.placeBlockNumber;\r\n        address gambler = bet.gambler;\r\n\r\n        require(amount > 0, \"Bet should be in an 'active' state\");\r\n        // 베팅에 해당하는 블록이 결과에 해당하는 블록보다 먼저 생성되어야 하는 것을 검토하는 require\r\n        require(block.number > placeBlockNumber, \"revealResult in the same block as placeBet, or before.\");\r\n\r\n        // 난수\r\n        bytes32 random = keccak256(abi.encodePacked(blockhash(block.number - seed), blockhash(placeBlockNumber)));\r\n\r\n        uint reveal = uint(random) %MAX_CASE;   // 0 or 1\r\n\r\n        uint winningAmount = 0;\r\n        uint possibleWinningAmount =0;\r\n        possibleWinningAmount = getWinningAmount(amount, numOfBetBit);\r\n\r\n        if((2 ** reveal) & bet.mask != 0) {\r\n            winningAmount = possibleWinningAmount;\r\n        }\r\n\r\n        emit Reveal(2 ** reveal);\r\n\r\n        if(winningAmount > 0) {\r\n            sendFunds(gambler, winningAmount);\r\n        }\r\n\r\n        lockedInBets -= possibleWinningAmount;\r\n        clearBet(msg.sender);\r\n    }\r\n\r\n    // 항목들 null로 세팅하는 메소드\r\n    function clearBet(address player) private {\r\n        Bet storage bet = bets[player];\r\n        // for safety\r\n        if(bet.amount > 0) {\r\n            return;\r\n        }\r\n        bet.amount = 0;\r\n        bet.numOfBetBit = 0;\r\n        bet.placeBlockNumber = 0;\r\n        bet.mask = 0;\r\n        bet.gambler = address (0);\r\n    }\r\n\r\n    // 결과 확인 전에 환불하는 메소드\r\n    function refundBet() external {\r\n        Bet storage bet = bets[msg.sender];\r\n\r\n        require(block.number > bet.place, \"refundBet in the same block as placeBet, or Before\");\r\n\r\n        //Bet storage bet = bets[msg.sender];\r\n        uint amount = bet.amount;\r\n\r\n        require (amount > 0, \"Bet should be in an 'active' state\");\r\n\r\n        uint8 numOfBetBit = bet.numOfBetBit;\r\n\r\n        // 환불\r\n        sendFunds(bet.gambler, amount);\r\n\r\n        uint possibleWinningAmount;\r\n        possibleWinningAmount = getWinningAmount(amount, numOfBetBit);\r\n\r\n        lockedInBets -= possibleWinningAmount;\r\n        clearBet(msg.sender);\r\n    }\r\n\r\n    function checkHouseFund() public view onlyOwner returns(uint) {\r\n        return address(this).balance;\r\n    }\r\n\r\n    function countBits(uint8 _num) internal pure returns (uint8) {\r\n        uint8 count;\r\n        while(_num > 0) {\r\n            count += _num & 1;\r\n            _num >>= 1;\r\n        }\r\n        return count;\r\n    }\r\n\r\n}\r\n\r\n*/",
  "sourcePath": "C:/Users/subo0/react-dapp/contracts/CoinFlips.sol",
  "compiler": {
    "name": "solc",
    "version": "0.5.0+commit.1d4f565a.Emscripten.clang"
  },
  "schemaVersion": "3.0.2",
  "updatedAt": "2022-02-07T12:50:53.042Z",
  "devdoc": {
    "methods": {}
  },
  "userdoc": {
    "methods": {}
  }
}